{
  "contractName": "PHBacon",
  "abi": [
    {
      "constant": true,
      "inputs": [
        {
          "name": "",
          "type": "address"
        }
      ],
      "name": "addressToMaker",
      "outputs": [
        {
          "name": "contributionBalance",
          "type": "uint256"
        },
        {
          "name": "PHusername",
          "type": "string"
        },
        {
          "name": "verified",
          "type": "bool"
        }
      ],
      "payable": false,
      "stateMutability": "view",
      "type": "function",
      "signature": "0xca6b2974"
    },
    {
      "inputs": [],
      "payable": false,
      "stateMutability": "nonpayable",
      "type": "constructor",
      "signature": "constructor"
    },
    {
      "anonymous": false,
      "inputs": [
        {
          "indexed": true,
          "name": "_value",
          "type": "uint256"
        },
        {
          "indexed": true,
          "name": "_maker",
          "type": "address"
        }
      ],
      "name": "depositTx",
      "type": "event",
      "signature": "0xb84212b358a3c75aa264b6c2ce4b41371caa9db8b2ff99b0c206cb687d554e10"
    },
    {
      "anonymous": false,
      "inputs": [
        {
          "indexed": true,
          "name": "_value",
          "type": "uint256"
        },
        {
          "indexed": true,
          "name": "_maker",
          "type": "address"
        }
      ],
      "name": "withdrawlTx",
      "type": "event",
      "signature": "0x59b5563b887c44d019d1b3a1073190c5f8e2973d1e7afe294b19bc2906884649"
    },
    {
      "constant": true,
      "inputs": [],
      "name": "getFundBalance",
      "outputs": [
        {
          "name": "",
          "type": "uint256"
        }
      ],
      "payable": false,
      "stateMutability": "view",
      "type": "function",
      "signature": "0xdae9e379"
    },
    {
      "constant": true,
      "inputs": [
        {
          "name": "_address",
          "type": "address"
        }
      ],
      "name": "getMaker",
      "outputs": [
        {
          "name": "",
          "type": "string"
        },
        {
          "name": "",
          "type": "uint256"
        },
        {
          "name": "",
          "type": "bool"
        }
      ],
      "payable": false,
      "stateMutability": "view",
      "type": "function",
      "signature": "0xc318330b"
    },
    {
      "constant": false,
      "inputs": [],
      "name": "deposit",
      "outputs": [],
      "payable": true,
      "stateMutability": "payable",
      "type": "function",
      "signature": "0xd0e30db0"
    },
    {
      "constant": false,
      "inputs": [
        {
          "name": "_value",
          "type": "uint256"
        }
      ],
      "name": "withdraw",
      "outputs": [],
      "payable": false,
      "stateMutability": "nonpayable",
      "type": "function",
      "signature": "0x2e1a7d4d"
    },
    {
      "constant": false,
      "inputs": [
        {
          "name": "_makerAddress",
          "type": "address"
        }
      ],
      "name": "verify",
      "outputs": [],
      "payable": false,
      "stateMutability": "nonpayable",
      "type": "function",
      "signature": "0x63a9c3d7"
    },
    {
      "constant": false,
      "inputs": [
        {
          "name": "_bool",
          "type": "bool"
        }
      ],
      "name": "pause",
      "outputs": [],
      "payable": false,
      "stateMutability": "nonpayable",
      "type": "function",
      "signature": "0x02329a29"
    }
  ],
  "bytecode": "0x60806040526001600060146101000a81548160ff02191690831515021790555034801561002b57600080fd5b50336000806101000a81548173ffffffffffffffffffffffffffffffffffffffff021916908373ffffffffffffffffffffffffffffffffffffffff160217905550610c4b8061007b6000396000f3fe60806040526004361061007d576000357c01000000000000000000000000000000000000000000000000000000009004806302329a29146100825780632e1a7d4d146100bf57806363a9c3d7146100fa578063c318330b1461014b578063ca6b297414610227578063d0e30db014610303578063dae9e3791461030d575b600080fd5b34801561008e57600080fd5b506100bd600480360360208110156100a557600080fd5b81019080803515159060200190929190505050610338565b005b3480156100cb57600080fd5b506100f8600480360360208110156100e257600080fd5b810190808035906020019092919050505061043f565b005b34801561010657600080fd5b506101496004803603602081101561011d57600080fd5b81019080803573ffffffffffffffffffffffffffffffffffffffff169060200190929190505050610791565b005b34801561015757600080fd5b5061019a6004803603602081101561016e57600080fd5b81019080803573ffffffffffffffffffffffffffffffffffffffff169060200190929190505050610930565b604051808060200184815260200183151515158152602001828103825285818151815260200191508051906020019080838360005b838110156101ea5780820151818401526020810190506101cf565b50505050905090810190601f1680156102175780820380516001836020036101000a031916815260200191505b5094505050505060405180910390f35b34801561023357600080fd5b506102766004803603602081101561024a57600080fd5b81019080803573ffffffffffffffffffffffffffffffffffffffff169060200190929190505050610a71565b604051808481526020018060200183151515158152602001828103825284818151815260200191508051906020019080838360005b838110156102c65780820151818401526020810190506102ab565b50505050905090810190601f1680156102f35780820380516001836020036101000a031916815260200191505b5094505050505060405180910390f35b61030b610b40565b005b34801561031957600080fd5b50610322610bdc565b6040518082815260200191505060405180910390f35b6000809054906101000a900473ffffffffffffffffffffffffffffffffffffffff1673ffffffffffffffffffffffffffffffffffffffff163373ffffffffffffffffffffffffffffffffffffffff16141515610422576040517f08c379a00000000000000000000000000000000000000000000000000000000081526004018080602001828103825260268152602001807f4f6e6c7920746865206f776e65722063616e2063616c6c20746869732066756e81526020017f6374696f6e2e000000000000000000000000000000000000000000000000000081525060400191505060405180910390fd5b80600060146101000a81548160ff02191690831515021790555050565b60001515600060149054906101000a900460ff1615151415156104ca576040517f08c379a00000000000000000000000000000000000000000000000000000000081526004018080602001828103825260208152602001807f57697468647261776c73206172652063757272656e746c79207061757365642e81525060200191505060405180910390fd5b60011515600160003373ffffffffffffffffffffffffffffffffffffffff1673ffffffffffffffffffffffffffffffffffffffff16815260200190815260200160002060020160009054906101000a900460ff161515141515610595576040517f08c379a000000000000000000000000000000000000000000000000000000000815260040180806020018281038252601e8152602001807f4164647265737320686173206e6f74206265656e2076657269666965642e000081525060200191505060405180910390fd5b60006002600160003373ffffffffffffffffffffffffffffffffffffffff1673ffffffffffffffffffffffffffffffffffffffff168152602001908152602001600020600001548115156105e557fe5b0490508082111515156106ac576040517f08c379a00000000000000000000000000000000000000000000000000000000081526004018080602001828103825260448152602001807f536f7272792c20796f752063616e206f6e6c7920657874726163742068616c6681526020017f206f6620796f757220636f6e747269627574696f6e42616c616e636520696e2081526020017f5765692e0000000000000000000000000000000000000000000000000000000081525060600191505060405180910390fd5b6000600160003373ffffffffffffffffffffffffffffffffffffffff1673ffffffffffffffffffffffffffffffffffffffff16815260200190815260200160002090508281600001600082825403925050819055503373ffffffffffffffffffffffffffffffffffffffff166108fc849081150290604051600060405180830381858888f19350505050158015610747573d6000803e3d6000fd5b503373ffffffffffffffffffffffffffffffffffffffff16837f59b5563b887c44d019d1b3a1073190c5f8e2973d1e7afe294b19bc290688464960405160405180910390a3505050565b6000809054906101000a900473ffffffffffffffffffffffffffffffffffffffff1673ffffffffffffffffffffffffffffffffffffffff163373ffffffffffffffffffffffffffffffffffffffff1614151561087b576040517f08c379a00000000000000000000000000000000000000000000000000000000081526004018080602001828103825260268152602001807f4f6e6c7920746865206f776e65722063616e2063616c6c20746869732066756e81526020017f6374696f6e2e000000000000000000000000000000000000000000000000000081525060400191505060405180910390fd5b60018060008373ffffffffffffffffffffffffffffffffffffffff1673ffffffffffffffffffffffffffffffffffffffff16815260200190815260200160002060020160006101000a81548160ff021916908315150217905550670de0b6b3a7640000600160008373ffffffffffffffffffffffffffffffffffffffff1673ffffffffffffffffffffffffffffffffffffffff1681526020019081526020016000206000016000828254019250508190555050565b606060008061093d610bfb565b600160008673ffffffffffffffffffffffffffffffffffffffff1673ffffffffffffffffffffffffffffffffffffffff1681526020019081526020016000206060604051908101604052908160008201548152602001600182018054600181600116156101000203166002900480601f016020809104026020016040519081016040528092919081815260200182805460018160011615610100020316600290048015610a2b5780601f10610a0057610100808354040283529160200191610a2b565b820191906000526020600020905b815481529060010190602001808311610a0e57829003601f168201915b505050505081526020016002820160009054906101000a900460ff1615151515815250509050806020015181600001518260400151829250935093509350509193909250565b6001602052806000526040600020600091509050806000015490806001018054600181600116156101000203166002900480601f016020809104026020016040519081016040528092919081815260200182805460018160011615610100020316600290048015610b235780601f10610af857610100808354040283529160200191610b23565b820191906000526020600020905b815481529060010190602001808311610b0657829003601f168201915b5050505050908060020160009054906101000a900460ff16905083565b6000600160003373ffffffffffffffffffffffffffffffffffffffff1673ffffffffffffffffffffffffffffffffffffffff16815260200190815260200160002090503481600001600082825401925050819055503373ffffffffffffffffffffffffffffffffffffffff16347fb84212b358a3c75aa264b6c2ce4b41371caa9db8b2ff99b0c206cb687d554e1060405160405180910390a350565b60003073ffffffffffffffffffffffffffffffffffffffff1631905090565b6060604051908101604052806000815260200160608152602001600015158152509056fea165627a7a723058204244e61d1d43c3d3d79e8c53f6c28d4297a793aee8a955d370768a82173564e70029",
  "source": "pragma solidity ^0.5.1;\r\n\r\ncontract PHBacon {\r\n    \r\n    /* This contract should enable to following options:\r\n    - Get contract balance\r\n    - Deposit value into the fund\r\n    - Withdraw value from the fund. Size of value is rate limited (can only withdraw half of contributionBalance,\r\n      when verified, with a max of 0.5ETH per week.)\r\n    - We can link a PH account to our address (verification needed).\r\n    - Withdrawls and deposits emit an event.\r\n    - Withdrawls and deposit can have a message associated with the transaction.\r\n    */\r\n    \r\n    /* The goal is to keep the contract and all blockchain-based operations incredibly simple and straightforward\r\n    as such that it makes potential bugs and loopholes less common. */\r\n    \r\n    // ===== WARNING: This version is using a push system for transfers. Can be converted to a pull system where we\r\n    // ===== maintain an extractable balance for each address and enable withdraw function that solely transfers.\r\n    \r\n    // ============= VARIABLES =============\r\n    \r\n    // Setting owner of the contract\r\n    address private owner;\r\n    \r\n    // Enabling pausability -> We first want to get sufficient funds in before we enable withdrawls.\r\n    bool private withdrawPaused = true;\r\n    \r\n    // Setting Maker struct template that holds maker data\r\n    struct Maker {\r\n        uint contributionBalance;\r\n        string PHusername;\r\n        bool verified;\r\n    }\r\n    \r\n    // Mapping address to a Maker\r\n    mapping (address => Maker) public addressToMaker;\r\n    \r\n    \r\n    constructor() public {\r\n        owner = msg.sender;\r\n    }\r\n    \r\n    \r\n    // ============= EVENTS =============\r\n    \r\n    event depositTx(uint indexed _value, address indexed _maker);\r\n    event withdrawlTx(uint indexed _value, address indexed _maker);\r\n    \r\n    \r\n    // ============= MODIFIERS =============\r\n    \r\n    // Require that the msg.sender is the owner\r\n    modifier isOwner() {\r\n        require(msg.sender == owner, \"Only the owner can call this function.\");\r\n        _;\r\n    }\r\n    \r\n    // Require that withdrawls are not paused\r\n    modifier notPaused() {\r\n        require(withdrawPaused == false, \"Withdrawls are currently paused.\");\r\n        _;\r\n    }\r\n    \r\n    // Require that the msg.sender is a verified address\r\n    modifier verified() {\r\n        require(addressToMaker[msg.sender].verified == true, \"Address has not been verified.\");\r\n        _;\r\n    }\r\n    \r\n    \r\n    // ============= FUNCTIONS =============\r\n    \r\n    // Allowing anybody to query the funds value\r\n    function getFundBalance() public view returns (uint) {\r\n        return address(this).balance;\r\n    } \r\n\r\n    // Get maker information using an address\r\n    function getMaker(address _address) public view returns(string memory, uint, bool) {\r\n        Maker memory getM = addressToMaker[_address];\r\n        return(getM.PHusername,getM.contributionBalance,getM.verified);\r\n    }\r\n    \r\n    // Allowing anybody to deposit funds, even non-verified makers\r\n    function deposit() public payable {\r\n        // Access Maker and increase contributionBalance\r\n        Maker storage depM = addressToMaker[msg.sender];\r\n        depM.contributionBalance += msg.value;\r\n        // Emit deposit event\r\n        emit depositTx(msg.value, msg.sender);\r\n    }\r\n    \r\n    // Allowing the wirthdrawl of funds by verified makers, capped at 0.5ETH per week, and \r\n    // value dependent on contributionBalance with a max debt of 1 ETH per maker (assymptote)\r\n    function withdraw(uint _value) public notPaused() verified() {\r\n        // Set max withdrawl\r\n        uint max = addressToMaker[msg.sender].contributionBalance / 2;\r\n        require(_value <= max, \"Sorry, you can only extract half of your contributionBalance in Wei.\");\r\n        // Access Maker and decrease contributionBalance\r\n        Maker storage withM = addressToMaker[msg.sender];\r\n        withM.contributionBalance -= _value;\r\n        // Transfer funds\r\n        msg.sender.transfer(_value);\r\n        // Emit withdrawl event\r\n        emit withdrawlTx(_value, msg.sender);\r\n    }\r\n    \r\n    // Set verified address\r\n    function verify(address _makerAddress) public isOwner() {\r\n        addressToMaker[_makerAddress].verified = true;\r\n        addressToMaker[_makerAddress].contributionBalance += 1000000000000000000;\r\n    }\r\n    \r\n    // Pause or re-open withdrawls \r\n    function pause(bool _bool) public isOwner() {\r\n        withdrawPaused = _bool;\r\n    }\r\n    \r\n}",
  "sourcePath": "C:/Users/Valentijn.vd.Hout/Desktop/PHBacon/blockchain/contracts/PHBacon.sol",
  "compiler": {
    "name": "solc",
    "version": "0.5.1+commit.c8a2cb62.Emscripten.clang"
  },
  "schemaVersion": "3.0.0",
  "updatedAt": "2019-02-02T11:49:14.096Z",
  "devdoc": {
    "methods": {}
  },
  "userdoc": {
    "methods": {}
  }
}