{
  "contractName": "PHBacon",
  "abi": [
    {
      "constant": true,
      "inputs": [
        {
          "name": "",
          "type": "address"
        }
      ],
      "name": "addressToMaker",
      "outputs": [
        {
          "name": "contributionBalance",
          "type": "uint256"
        },
        {
          "name": "PHusername",
          "type": "string"
        },
        {
          "name": "verified",
          "type": "bool"
        }
      ],
      "payable": false,
      "stateMutability": "view",
      "type": "function",
      "signature": "0xca6b2974"
    },
    {
      "inputs": [],
      "payable": false,
      "stateMutability": "nonpayable",
      "type": "constructor",
      "signature": "constructor"
    },
    {
      "anonymous": false,
      "inputs": [
        {
          "indexed": true,
          "name": "_type",
          "type": "bytes32"
        },
        {
          "indexed": true,
          "name": "_value",
          "type": "uint256"
        },
        {
          "indexed": true,
          "name": "_maker",
          "type": "address"
        }
      ],
      "name": "Transaction",
      "type": "event",
      "signature": "0x24bd9ba7e83c1d26de90784515f6185497dd69f16989e648f27c5863696a2b7d"
    },
    {
      "constant": true,
      "inputs": [],
      "name": "getFundBalance",
      "outputs": [
        {
          "name": "",
          "type": "uint256"
        }
      ],
      "payable": false,
      "stateMutability": "view",
      "type": "function",
      "signature": "0xdae9e379"
    },
    {
      "constant": true,
      "inputs": [
        {
          "name": "_address",
          "type": "address"
        }
      ],
      "name": "getMaker",
      "outputs": [
        {
          "name": "",
          "type": "string"
        },
        {
          "name": "",
          "type": "uint256"
        },
        {
          "name": "",
          "type": "bool"
        }
      ],
      "payable": false,
      "stateMutability": "view",
      "type": "function",
      "signature": "0xc318330b"
    },
    {
      "constant": false,
      "inputs": [
        {
          "name": "_username",
          "type": "string"
        }
      ],
      "name": "becomeMaker",
      "outputs": [],
      "payable": true,
      "stateMutability": "payable",
      "type": "function",
      "signature": "0x2fb0ee2a"
    },
    {
      "constant": false,
      "inputs": [],
      "name": "deposit",
      "outputs": [],
      "payable": true,
      "stateMutability": "payable",
      "type": "function",
      "signature": "0xd0e30db0"
    },
    {
      "constant": false,
      "inputs": [
        {
          "name": "_value",
          "type": "uint256"
        }
      ],
      "name": "withdraw",
      "outputs": [],
      "payable": false,
      "stateMutability": "nonpayable",
      "type": "function",
      "signature": "0x2e1a7d4d"
    },
    {
      "constant": false,
      "inputs": [
        {
          "name": "_makerAddress",
          "type": "address"
        }
      ],
      "name": "verify",
      "outputs": [],
      "payable": false,
      "stateMutability": "nonpayable",
      "type": "function",
      "signature": "0x63a9c3d7"
    },
    {
      "constant": false,
      "inputs": [
        {
          "name": "_bool",
          "type": "bool"
        }
      ],
      "name": "pause",
      "outputs": [],
      "payable": false,
      "stateMutability": "nonpayable",
      "type": "function",
      "signature": "0x02329a29"
    }
  ],
  "bytecode": "0x60806040526001600060146101000a81548160ff02191690831515021790555034801561002b57600080fd5b50336000806101000a81548173ffffffffffffffffffffffffffffffffffffffff021916908373ffffffffffffffffffffffffffffffffffffffff160217905550610f828061007b6000396000f3fe608060405260043610610088576000357c01000000000000000000000000000000000000000000000000000000009004806302329a291461008d5780632e1a7d4d146100ca5780632fb0ee2a1461010557806363a9c3d7146101c0578063c318330b14610211578063ca6b2974146102ed578063d0e30db0146103c9578063dae9e379146103d3575b600080fd5b34801561009957600080fd5b506100c8600480360360208110156100b057600080fd5b810190808035151590602001909291905050506103fe565b005b3480156100d657600080fd5b50610103600480360360208110156100ed57600080fd5b8101908080359060200190929190505050610505565b005b6101be6004803603602081101561011b57600080fd5b810190808035906020019064010000000081111561013857600080fd5b82018360208201111561014a57600080fd5b8035906020019184600183028401116401000000008311171561016c57600080fd5b91908080601f016020809104026020016040519081016040528093929190818152602001838380828437600081840152601f19601f820116905080830192505050505050509192919290505050610878565b005b3480156101cc57600080fd5b5061020f600480360360208110156101e357600080fd5b81019080803573ffffffffffffffffffffffffffffffffffffffff169060200190929190505050610a02565b005b34801561021d57600080fd5b506102606004803603602081101561023457600080fd5b81019080803573ffffffffffffffffffffffffffffffffffffffff169060200190929190505050610ba1565b604051808060200184815260200183151515158152602001828103825285818151815260200191508051906020019080838360005b838110156102b0578082015181840152602081019050610295565b50505050905090810190601f1680156102dd5780820380516001836020036101000a031916815260200191505b5094505050505060405180910390f35b3480156102f957600080fd5b5061033c6004803603602081101561031057600080fd5b81019080803573ffffffffffffffffffffffffffffffffffffffff169060200190929190505050610ce2565b604051808481526020018060200183151515158152602001828103825284818151815260200191508051906020019080838360005b8381101561038c578082015181840152602081019050610371565b50505050905090810190601f1680156103b95780820380516001836020036101000a031916815260200191505b5094505050505060405180910390f35b6103d1610db1565b005b3480156103df57600080fd5b506103e8610e6e565b6040518082815260200191505060405180910390f35b6000809054906101000a900473ffffffffffffffffffffffffffffffffffffffff1673ffffffffffffffffffffffffffffffffffffffff163373ffffffffffffffffffffffffffffffffffffffff161415156104e8576040517f08c379a00000000000000000000000000000000000000000000000000000000081526004018080602001828103825260268152602001807f4f6e6c7920746865206f776e65722063616e2063616c6c20746869732066756e81526020017f6374696f6e2e000000000000000000000000000000000000000000000000000081525060400191505060405180910390fd5b80600060146101000a81548160ff02191690831515021790555050565b60001515600060149054906101000a900460ff161515141515610590576040517f08c379a00000000000000000000000000000000000000000000000000000000081526004018080602001828103825260208152602001807f57697468647261776c73206172652063757272656e746c79207061757365642e81525060200191505060405180910390fd5b60011515600160003373ffffffffffffffffffffffffffffffffffffffff1673ffffffffffffffffffffffffffffffffffffffff16815260200190815260200160002060020160009054906101000a900460ff16151514151561065b576040517f08c379a000000000000000000000000000000000000000000000000000000000815260040180806020018281038252601e8152602001807f4164647265737320686173206e6f74206265656e2076657269666965642e000081525060200191505060405180910390fd5b60006002600160003373ffffffffffffffffffffffffffffffffffffffff1673ffffffffffffffffffffffffffffffffffffffff168152602001908152602001600020600001548115156106ab57fe5b049050808211151515610772576040517f08c379a00000000000000000000000000000000000000000000000000000000081526004018080602001828103825260448152602001807f536f7272792c20796f752063616e206f6e6c7920657874726163742068616c6681526020017f206f6620796f757220636f6e747269627574696f6e42616c616e636520696e2081526020017f5765692e0000000000000000000000000000000000000000000000000000000081525060600191505060405180910390fd5b6000600160003373ffffffffffffffffffffffffffffffffffffffff1673ffffffffffffffffffffffffffffffffffffffff16815260200190815260200160002090508281600001600082825403925050819055503373ffffffffffffffffffffffffffffffffffffffff166108fc849081150290604051600060405180830381858888f1935050505015801561080d573d6000803e3d6000fd5b503373ffffffffffffffffffffffffffffffffffffffff16837f77697468647261776c00000000000000000000000000000000000000000000007f24bd9ba7e83c1d26de90784515f6185497dd69f16989e648f27c5863696a2b7d60405160405180910390a4505050565b67016345785d8a000034111515610943576040517f08c379a000000000000000000000000000000000000000000000000000000000815260040180806020018281038252605a8152602001807f496e206f7264657220746f206265636f6d652061206d616b657220796f75206e81526020017f65656420746f2073656e64206f766572206174206c6561737420302e3130204581526020017f54482077697468207468652066756e6374696f6e2063616c6c2e00000000000081525060600191505060405180910390fd5b80600160003373ffffffffffffffffffffffffffffffffffffffff1673ffffffffffffffffffffffffffffffffffffffff1681526020019081526020016000206001019080519060200190610999929190610e8d565b503373ffffffffffffffffffffffffffffffffffffffff16347f6465706f736974000000000000000000000000000000000000000000000000007f24bd9ba7e83c1d26de90784515f6185497dd69f16989e648f27c5863696a2b7d60405160405180910390a450565b6000809054906101000a900473ffffffffffffffffffffffffffffffffffffffff1673ffffffffffffffffffffffffffffffffffffffff163373ffffffffffffffffffffffffffffffffffffffff16141515610aec576040517f08c379a00000000000000000000000000000000000000000000000000000000081526004018080602001828103825260268152602001807f4f6e6c7920746865206f776e65722063616e2063616c6c20746869732066756e81526020017f6374696f6e2e000000000000000000000000000000000000000000000000000081525060400191505060405180910390fd5b60018060008373ffffffffffffffffffffffffffffffffffffffff1673ffffffffffffffffffffffffffffffffffffffff16815260200190815260200160002060020160006101000a81548160ff021916908315150217905550670de0b6b3a7640000600160008373ffffffffffffffffffffffffffffffffffffffff1673ffffffffffffffffffffffffffffffffffffffff1681526020019081526020016000206000016000828254019250508190555050565b6060600080610bae610f0d565b600160008673ffffffffffffffffffffffffffffffffffffffff1673ffffffffffffffffffffffffffffffffffffffff1681526020019081526020016000206060604051908101604052908160008201548152602001600182018054600181600116156101000203166002900480601f016020809104026020016040519081016040528092919081815260200182805460018160011615610100020316600290048015610c9c5780601f10610c7157610100808354040283529160200191610c9c565b820191906000526020600020905b815481529060010190602001808311610c7f57829003601f168201915b505050505081526020016002820160009054906101000a900460ff1615151515815250509050806020015181600001518260400151829250935093509350509193909250565b6001602052806000526040600020600091509050806000015490806001018054600181600116156101000203166002900480601f016020809104026020016040519081016040528092919081815260200182805460018160011615610100020316600290048015610d945780601f10610d6957610100808354040283529160200191610d94565b820191906000526020600020905b815481529060010190602001808311610d7757829003601f168201915b5050505050908060020160009054906101000a900460ff16905083565b6000600160003373ffffffffffffffffffffffffffffffffffffffff1673ffffffffffffffffffffffffffffffffffffffff16815260200190815260200160002090503481600001600082825401925050819055503373ffffffffffffffffffffffffffffffffffffffff16347f6465706f736974000000000000000000000000000000000000000000000000007f24bd9ba7e83c1d26de90784515f6185497dd69f16989e648f27c5863696a2b7d60405160405180910390a450565b60003073ffffffffffffffffffffffffffffffffffffffff1631905090565b828054600181600116156101000203166002900490600052602060002090601f016020900481019282601f10610ece57805160ff1916838001178555610efc565b82800160010185558215610efc579182015b82811115610efb578251825591602001919060010190610ee0565b5b509050610f099190610f31565b5090565b60606040519081016040528060008152602001606081526020016000151581525090565b610f5391905b80821115610f4f576000816000905550600101610f37565b5090565b9056fea165627a7a72305820c85359530c1b7049e05d4c324b1accb912cdcd2f6fc131ca797c83d2ef1537510029",
  "source": "pragma solidity ^0.5.1;\r\n\r\ncontract PHBacon {\r\n    \r\n    /* This contract should enable to following options:\r\n    - Get contract balance\r\n    - Deposit value into the fund\r\n    - Withdraw value from the fund. Size of value is rate limited (can only withdraw half of contributionBalance,\r\n      when verified, with a max of 0.5ETH per week.)\r\n    - We can link a PH account to our address (verification needed).\r\n    - Withdrawls and deposits emit an event.\r\n    - Withdrawls and deposit can have a message associated with the transaction.\r\n    */\r\n    \r\n    /* The goal is to keep the contract and all blockchain-based operations incredibly simple and straightforward\r\n    as such that it makes potential bugs and loopholes less common. */\r\n    \r\n    // ===== WARNING: This version is using a push system for transfers. Can be converted to a pull system where we\r\n    // ===== maintain an extractable balance for each address and enable withdraw function that solely transfers.\r\n    \r\n    // ============= VARIABLES =============\r\n    \r\n    // Setting owner of the contract\r\n    address private owner;\r\n    \r\n    // Enabling pausability -> We first want to get sufficient funds in before we enable withdrawls.\r\n    bool private withdrawPaused = true;\r\n    \r\n    // Setting Maker struct template that holds maker data\r\n    struct Maker {\r\n        uint contributionBalance;\r\n        string PHusername;\r\n        bool verified;\r\n    }\r\n    \r\n    // Mapping address to a Maker\r\n    mapping (address => Maker) public addressToMaker;\r\n    \r\n    \r\n    constructor() public {\r\n        owner = msg.sender;\r\n    }\r\n    \r\n    \r\n    // ============= EVENTS =============\r\n    event Transaction(bytes32 indexed _type, uint indexed _value, address indexed _maker);\r\n    \r\n    \r\n    // ============= MODIFIERS =============\r\n    \r\n    // Require that the msg.sender is the owner\r\n    modifier isOwner() {\r\n        require(msg.sender == owner, \"Only the owner can call this function.\");\r\n        _;\r\n    }\r\n    \r\n    // Require that withdrawls are not paused\r\n    modifier notPaused() {\r\n        require(withdrawPaused == false, \"Withdrawls are currently paused.\");\r\n        _;\r\n    }\r\n    \r\n    // Require that the msg.sender is a verified address\r\n    modifier verified() {\r\n        require(addressToMaker[msg.sender].verified == true, \"Address has not been verified.\");\r\n        _;\r\n    }\r\n    \r\n    \r\n    // ============= FUNCTIONS =============\r\n    \r\n    // Allowing anybody to query the funds value\r\n    function getFundBalance() public view returns (uint) {\r\n        return address(this).balance;\r\n    } \r\n\r\n    // Get maker information using an address\r\n    function getMaker(address _address) public view returns(string memory, uint, bool) {\r\n        Maker memory getM = addressToMaker[_address];\r\n        return(getM.PHusername,getM.contributionBalance,getM.verified);\r\n    }\r\n\r\n    // Become a maker and request verification\r\n    function becomeMaker(string memory _username) public payable {\r\n        require(msg.value > 0.1 ether, \"In order to become a maker you need to send over at least 0.10 ETH with the function call.\");\r\n        addressToMaker[msg.sender].PHusername = _username;\r\n        // Emit deposit event\r\n        emit Transaction(\"deposit\", msg.value, msg.sender);\r\n    }\r\n    \r\n    // Allowing anybody to deposit funds, even non-verified makers\r\n    function deposit() public payable {\r\n        // Access Maker and increase contributionBalance\r\n        Maker storage depM = addressToMaker[msg.sender];\r\n        depM.contributionBalance += msg.value;\r\n        // Emit deposit event\r\n        emit Transaction(\"deposit\", msg.value, msg.sender);\r\n    }\r\n    \r\n    // Allowing the wirthdrawl of funds by verified makers, capped at 0.5ETH per week, and \r\n    // value dependent on contributionBalance with a max debt of 1 ETH per maker (assymptote)\r\n    function withdraw(uint _value) public notPaused() verified() {\r\n        // Set max withdrawl\r\n        uint max = addressToMaker[msg.sender].contributionBalance / 2;\r\n        require(_value <= max, \"Sorry, you can only extract half of your contributionBalance in Wei.\");\r\n        // Access Maker and decrease contributionBalance\r\n        Maker storage withM = addressToMaker[msg.sender];\r\n        withM.contributionBalance -= _value;\r\n        // Transfer funds\r\n        msg.sender.transfer(_value);\r\n        // Emit withdrawl event\r\n        emit Transaction(\"withdrawl\", _value, msg.sender);\r\n    }\r\n    \r\n    // Set verified address\r\n    function verify(address _makerAddress) public isOwner() {\r\n        addressToMaker[_makerAddress].verified = true;\r\n        addressToMaker[_makerAddress].contributionBalance += 1000000000000000000;\r\n    }\r\n    \r\n    // Pause or re-open withdrawls \r\n    function pause(bool _bool) public isOwner() {\r\n        withdrawPaused = _bool;\r\n    }\r\n    \r\n}",
  "sourcePath": "C:/Users/Valentijn.vd.Hout/Desktop/PHBacon/blockchain/contracts/PHBacon.sol",
  "compiler": {
    "name": "solc",
    "version": "0.5.1+commit.c8a2cb62.Emscripten.clang"
  },
  "schemaVersion": "3.0.0",
  "updatedAt": "2019-02-11T15:10:57.387Z",
  "devdoc": {
    "methods": {}
  },
  "userdoc": {
    "methods": {}
  }
}