{
  "contractName": "PHBacon",
  "abi": [
    {
      "constant": true,
      "inputs": [
        {
          "name": "",
          "type": "address"
        }
      ],
      "name": "addressToMaker",
      "outputs": [
        {
          "name": "contributionBalance",
          "type": "uint256"
        },
        {
          "name": "PHusername",
          "type": "string"
        },
        {
          "name": "verified",
          "type": "bool"
        }
      ],
      "payable": false,
      "stateMutability": "view",
      "type": "function",
      "signature": "0xca6b2974"
    },
    {
      "inputs": [],
      "payable": false,
      "stateMutability": "nonpayable",
      "type": "constructor",
      "signature": "constructor"
    },
    {
      "anonymous": false,
      "inputs": [
        {
          "indexed": true,
          "name": "_value",
          "type": "uint256"
        },
        {
          "indexed": true,
          "name": "_maker",
          "type": "address"
        }
      ],
      "name": "depositTx",
      "type": "event",
      "signature": "0xb84212b358a3c75aa264b6c2ce4b41371caa9db8b2ff99b0c206cb687d554e10"
    },
    {
      "anonymous": false,
      "inputs": [
        {
          "indexed": true,
          "name": "_value",
          "type": "uint256"
        },
        {
          "indexed": true,
          "name": "_maker",
          "type": "address"
        }
      ],
      "name": "withdrawlTx",
      "type": "event",
      "signature": "0x59b5563b887c44d019d1b3a1073190c5f8e2973d1e7afe294b19bc2906884649"
    },
    {
      "constant": true,
      "inputs": [],
      "name": "getFundBalance",
      "outputs": [
        {
          "name": "",
          "type": "uint256"
        }
      ],
      "payable": false,
      "stateMutability": "view",
      "type": "function",
      "signature": "0xdae9e379"
    },
    {
      "constant": false,
      "inputs": [],
      "name": "deposit",
      "outputs": [],
      "payable": true,
      "stateMutability": "payable",
      "type": "function",
      "signature": "0xd0e30db0"
    },
    {
      "constant": false,
      "inputs": [
        {
          "name": "_value",
          "type": "uint256"
        }
      ],
      "name": "withdraw",
      "outputs": [],
      "payable": false,
      "stateMutability": "nonpayable",
      "type": "function",
      "signature": "0x2e1a7d4d"
    },
    {
      "constant": false,
      "inputs": [
        {
          "name": "_makerAddress",
          "type": "address"
        }
      ],
      "name": "verify",
      "outputs": [],
      "payable": false,
      "stateMutability": "nonpayable",
      "type": "function",
      "signature": "0x63a9c3d7"
    },
    {
      "constant": false,
      "inputs": [
        {
          "name": "_bool",
          "type": "bool"
        }
      ],
      "name": "pause",
      "outputs": [],
      "payable": false,
      "stateMutability": "nonpayable",
      "type": "function",
      "signature": "0x02329a29"
    }
  ],
  "bytecode": "0x60806040526001600060146101000a81548160ff02191690831515021790555034801561002b57600080fd5b50336000806101000a81548173ffffffffffffffffffffffffffffffffffffffff021916908373ffffffffffffffffffffffffffffffffffffffff1602179055506109ff8061007b6000396000f3fe608060405260043610610072576000357c01000000000000000000000000000000000000000000000000000000009004806302329a29146100775780632e1a7d4d146100b457806363a9c3d7146100ef578063ca6b297414610140578063d0e30db01461021c578063dae9e37914610226575b600080fd5b34801561008357600080fd5b506100b26004803603602081101561009a57600080fd5b81019080803515159060200190929190505050610251565b005b3480156100c057600080fd5b506100ed600480360360208110156100d757600080fd5b8101908080359060200190929190505050610358565b005b3480156100fb57600080fd5b5061013e6004803603602081101561011257600080fd5b81019080803573ffffffffffffffffffffffffffffffffffffffff1690602001909291905050506106aa565b005b34801561014c57600080fd5b5061018f6004803603602081101561016357600080fd5b81019080803573ffffffffffffffffffffffffffffffffffffffff169060200190929190505050610849565b604051808481526020018060200183151515158152602001828103825284818151815260200191508051906020019080838360005b838110156101df5780820151818401526020810190506101c4565b50505050905090810190601f16801561020c5780820380516001836020036101000a031916815260200191505b5094505050505060405180910390f35b610224610918565b005b34801561023257600080fd5b5061023b6109b4565b6040518082815260200191505060405180910390f35b6000809054906101000a900473ffffffffffffffffffffffffffffffffffffffff1673ffffffffffffffffffffffffffffffffffffffff163373ffffffffffffffffffffffffffffffffffffffff1614151561033b576040517f08c379a00000000000000000000000000000000000000000000000000000000081526004018080602001828103825260268152602001807f4f6e6c7920746865206f776e65722063616e2063616c6c20746869732066756e81526020017f6374696f6e2e000000000000000000000000000000000000000000000000000081525060400191505060405180910390fd5b80600060146101000a81548160ff02191690831515021790555050565b60001515600060149054906101000a900460ff1615151415156103e3576040517f08c379a00000000000000000000000000000000000000000000000000000000081526004018080602001828103825260208152602001807f57697468647261776c73206172652063757272656e746c79207061757365642e81525060200191505060405180910390fd5b60011515600160003373ffffffffffffffffffffffffffffffffffffffff1673ffffffffffffffffffffffffffffffffffffffff16815260200190815260200160002060020160009054906101000a900460ff1615151415156104ae576040517f08c379a000000000000000000000000000000000000000000000000000000000815260040180806020018281038252601e8152602001807f4164647265737320686173206e6f74206265656e2076657269666965642e000081525060200191505060405180910390fd5b60006002600160003373ffffffffffffffffffffffffffffffffffffffff1673ffffffffffffffffffffffffffffffffffffffff168152602001908152602001600020600001548115156104fe57fe5b0490508082111515156105c5576040517f08c379a00000000000000000000000000000000000000000000000000000000081526004018080602001828103825260448152602001807f536f7272792c20796f752063616e206f6e6c7920657874726163742068616c6681526020017f206f6620796f757220636f6e747269627574696f6e42616c616e636520696e2081526020017f5765692e0000000000000000000000000000000000000000000000000000000081525060600191505060405180910390fd5b6000600160003373ffffffffffffffffffffffffffffffffffffffff1673ffffffffffffffffffffffffffffffffffffffff16815260200190815260200160002090508281600001600082825403925050819055503373ffffffffffffffffffffffffffffffffffffffff166108fc849081150290604051600060405180830381858888f19350505050158015610660573d6000803e3d6000fd5b503373ffffffffffffffffffffffffffffffffffffffff16837f59b5563b887c44d019d1b3a1073190c5f8e2973d1e7afe294b19bc290688464960405160405180910390a3505050565b6000809054906101000a900473ffffffffffffffffffffffffffffffffffffffff1673ffffffffffffffffffffffffffffffffffffffff163373ffffffffffffffffffffffffffffffffffffffff16141515610794576040517f08c379a00000000000000000000000000000000000000000000000000000000081526004018080602001828103825260268152602001807f4f6e6c7920746865206f776e65722063616e2063616c6c20746869732066756e81526020017f6374696f6e2e000000000000000000000000000000000000000000000000000081525060400191505060405180910390fd5b60018060008373ffffffffffffffffffffffffffffffffffffffff1673ffffffffffffffffffffffffffffffffffffffff16815260200190815260200160002060020160006101000a81548160ff021916908315150217905550670de0b6b3a7640000600160008373ffffffffffffffffffffffffffffffffffffffff1673ffffffffffffffffffffffffffffffffffffffff1681526020019081526020016000206000016000828254019250508190555050565b6001602052806000526040600020600091509050806000015490806001018054600181600116156101000203166002900480601f0160208091040260200160405190810160405280929190818152602001828054600181600116156101000203166002900480156108fb5780601f106108d0576101008083540402835291602001916108fb565b820191906000526020600020905b8154815290600101906020018083116108de57829003601f168201915b5050505050908060020160009054906101000a900460ff16905083565b6000600160003373ffffffffffffffffffffffffffffffffffffffff1673ffffffffffffffffffffffffffffffffffffffff16815260200190815260200160002090503481600001600082825401925050819055503373ffffffffffffffffffffffffffffffffffffffff16347fb84212b358a3c75aa264b6c2ce4b41371caa9db8b2ff99b0c206cb687d554e1060405160405180910390a350565b60003073ffffffffffffffffffffffffffffffffffffffff163190509056fea165627a7a72305820a7f3d1dd9d8100551f1f327f7b984d32ba20367d3c93ff1bb29a0dcff5b83cf40029",
  "source": "pragma solidity ^0.5.1;\r\n\r\ncontract PHBacon {\r\n    \r\n    /* This contract should enable to following options:\r\n    - Get contract balance\r\n    - Deposit value into the fund\r\n    - Withdraw value from the fund. Size of value is rate limited (can only withdraw half of contributionBalance,\r\n      when verified, with a max of 0.5ETH per week.)\r\n    - We can link a PH account to our address (verification needed).\r\n    - Withdrawls and deposits emit an event.\r\n    - Withdrawls and deposit can have a message associated with the transaction.\r\n    */\r\n    \r\n    /* The goal is to keep the contract and all blockchain-based operations incredibly simple and straightforward\r\n    as such that it makes potential bugs and loopholes less common. */\r\n    \r\n    // ===== WARNING: This version is using a push system for transfers. Can be converted to a pull system where we\r\n    // ===== maintain an extractable balance for each address and enable withdraw function that solely transfers.\r\n    \r\n    // ============= VARIABLES =============\r\n    \r\n    // Setting owner of the contract\r\n    address private owner;\r\n    \r\n    // Enabling pausability -> We first want to get sufficient funds in before we enable withdrawls.\r\n    bool private withdrawPaused = true;\r\n    \r\n    // Setting Maker struct template that holds maker data\r\n    struct Maker {\r\n        uint contributionBalance;\r\n        string PHusername;\r\n        bool verified;\r\n    }\r\n    \r\n    // Mapping address to a Maker\r\n    mapping (address => Maker) public addressToMaker;\r\n    \r\n    \r\n    constructor() public {\r\n        owner = msg.sender;\r\n    }\r\n    \r\n    \r\n    // ============= EVENTS =============\r\n    \r\n    event depositTx(uint indexed _value, address indexed _maker);\r\n    event withdrawlTx(uint indexed _value, address indexed _maker);\r\n    \r\n    \r\n    // ============= MODIFIERS =============\r\n    \r\n    // Require that the msg.sender is the owner\r\n    modifier isOwner() {\r\n        require(msg.sender == owner, \"Only the owner can call this function.\");\r\n        _;\r\n    }\r\n    \r\n    // Require that withdrawls are not paused\r\n    modifier notPaused() {\r\n        require(withdrawPaused == false, \"Withdrawls are currently paused.\");\r\n        _;\r\n    }\r\n    \r\n    // Require that the msg.sender is a verified address\r\n    modifier verified() {\r\n        require(addressToMaker[msg.sender].verified == true, \"Address has not been verified.\");\r\n        _;\r\n    }\r\n    \r\n    \r\n    // ============= FUNCTIONS =============\r\n    \r\n    // Allowing anybody to query the funds value\r\n    function getFundBalance() public view returns (uint) {\r\n        return address(this).balance;\r\n    } \r\n    \r\n    // Allowing anybody to deposit funds, even non-verified makers\r\n    function deposit() public payable {\r\n        // Access Maker and increase contributionBalance\r\n        Maker storage depM = addressToMaker[msg.sender];\r\n        depM.contributionBalance += msg.value;\r\n        // Emit deposit event\r\n        emit depositTx(msg.value, msg.sender);\r\n    }\r\n    \r\n    // Allowing the wirthdrawl of funds by verified makers, capped at 0.5ETH per week, and \r\n    // value dependent on contributionBalance with a max debt of 1 ETH per maker (assymptote)\r\n    function withdraw(uint _value) public notPaused() verified() {\r\n        // Set max withdrawl\r\n        uint max = addressToMaker[msg.sender].contributionBalance / 2;\r\n        require(_value <= max, \"Sorry, you can only extract half of your contributionBalance in Wei.\");\r\n        // Access Maker and decrease contributionBalance\r\n        Maker storage withM = addressToMaker[msg.sender];\r\n        withM.contributionBalance -= _value;\r\n        // Transfer funds\r\n        msg.sender.transfer(_value);\r\n        // Emit withdrawl event\r\n        emit withdrawlTx(_value, msg.sender);\r\n    }\r\n    \r\n    // Set verified address\r\n    function verify(address _makerAddress) public isOwner() {\r\n        addressToMaker[_makerAddress].verified = true;\r\n        addressToMaker[_makerAddress].contributionBalance += 1000000000000000000;\r\n    }\r\n    \r\n    // Pause or re-open withdrawls \r\n    function pause(bool _bool) public isOwner() {\r\n        withdrawPaused = _bool;\r\n    }\r\n    \r\n}",
  "sourcePath": "C:/Users/Valentijn.vd.Hout/Desktop/PHBacon/blockchain/contracts/PHBacon.sol",
  "compiler": {
    "name": "solc",
    "version": "0.5.1+commit.c8a2cb62.Emscripten.clang"
  },
  "schemaVersion": "3.0.0",
  "updatedAt": "2019-02-01T11:22:46.068Z",
  "devdoc": {
    "methods": {}
  },
  "userdoc": {
    "methods": {}
  }
}