{
  "contractName": "PHBacon",
  "abi": [
    {
      "constant": true,
      "inputs": [
        {
          "name": "",
          "type": "address"
        }
      ],
      "name": "addressToMaker",
      "outputs": [
        {
          "name": "contributionBalance",
          "type": "uint256"
        },
        {
          "name": "PHusername",
          "type": "string"
        },
        {
          "name": "imgurl",
          "type": "string"
        },
        {
          "name": "verified",
          "type": "bool"
        }
      ],
      "payable": false,
      "stateMutability": "view",
      "type": "function",
      "signature": "0xca6b2974"
    },
    {
      "inputs": [],
      "payable": false,
      "stateMutability": "nonpayable",
      "type": "constructor",
      "signature": "constructor"
    },
    {
      "anonymous": false,
      "inputs": [
        {
          "indexed": true,
          "name": "_type",
          "type": "bytes32"
        },
        {
          "indexed": true,
          "name": "_value",
          "type": "uint256"
        },
        {
          "indexed": true,
          "name": "_maker",
          "type": "address"
        },
        {
          "indexed": false,
          "name": "_msg",
          "type": "string"
        }
      ],
      "name": "Transaction",
      "type": "event",
      "signature": "0x759821fc0dd8b7954352388d9d3f376f8a4c06d4a72def093e0526ff058363dd"
    },
    {
      "constant": true,
      "inputs": [],
      "name": "getFundBalance",
      "outputs": [
        {
          "name": "",
          "type": "uint256"
        }
      ],
      "payable": false,
      "stateMutability": "view",
      "type": "function",
      "signature": "0xdae9e379"
    },
    {
      "constant": true,
      "inputs": [
        {
          "name": "_address",
          "type": "address"
        }
      ],
      "name": "getMaker",
      "outputs": [
        {
          "name": "",
          "type": "string"
        },
        {
          "name": "",
          "type": "uint256"
        },
        {
          "name": "",
          "type": "string"
        },
        {
          "name": "",
          "type": "bool"
        }
      ],
      "payable": false,
      "stateMutability": "view",
      "type": "function",
      "signature": "0xc318330b"
    },
    {
      "constant": false,
      "inputs": [
        {
          "name": "_username",
          "type": "string"
        },
        {
          "name": "_imageurl",
          "type": "string"
        }
      ],
      "name": "becomeMaker",
      "outputs": [],
      "payable": true,
      "stateMutability": "payable",
      "type": "function",
      "signature": "0xede05d19"
    },
    {
      "constant": false,
      "inputs": [
        {
          "name": "_msg",
          "type": "string"
        }
      ],
      "name": "deposit",
      "outputs": [],
      "payable": true,
      "stateMutability": "payable",
      "type": "function",
      "signature": "0xa26e1186"
    },
    {
      "constant": false,
      "inputs": [
        {
          "name": "_value",
          "type": "uint256"
        },
        {
          "name": "_msg",
          "type": "string"
        }
      ],
      "name": "withdraw",
      "outputs": [],
      "payable": false,
      "stateMutability": "nonpayable",
      "type": "function",
      "signature": "0xdc048cf2"
    },
    {
      "constant": false,
      "inputs": [
        {
          "name": "_makerAddress",
          "type": "address"
        }
      ],
      "name": "verify",
      "outputs": [],
      "payable": false,
      "stateMutability": "nonpayable",
      "type": "function",
      "signature": "0x63a9c3d7"
    },
    {
      "constant": false,
      "inputs": [
        {
          "name": "_bool",
          "type": "bool"
        }
      ],
      "name": "pause",
      "outputs": [],
      "payable": false,
      "stateMutability": "nonpayable",
      "type": "function",
      "signature": "0x02329a29"
    }
  ],
  "bytecode": "0x60806040526001600060146101000a81548160ff02191690831515021790555034801561002b57600080fd5b50336000806101000a81548173ffffffffffffffffffffffffffffffffffffffff021916908373ffffffffffffffffffffffffffffffffffffffff1602179055506115a28061007b6000396000f3fe608060405260043610610088576000357c01000000000000000000000000000000000000000000000000000000009004806302329a291461008d57806363a9c3d7146100ca578063a26e11861461011b578063c318330b146101d6578063ca6b29741461031e578063dae9e37914610466578063dc048cf214610491578063ede05d1914610563575b600080fd5b34801561009957600080fd5b506100c8600480360360208110156100b057600080fd5b810190808035151590602001909291905050506106b5565b005b3480156100d657600080fd5b50610119600480360360208110156100ed57600080fd5b81019080803573ffffffffffffffffffffffffffffffffffffffff1690602001909291905050506107bc565b005b6101d46004803603602081101561013157600080fd5b810190808035906020019064010000000081111561014e57600080fd5b82018360208201111561016057600080fd5b8035906020019184600183028401116401000000008311171561018257600080fd5b91908080601f016020809104026020016040519081016040528093929190818152602001838380828437600081840152601f19601f82011690508083019250505050505050919291929050505061095b565b005b3480156101e257600080fd5b50610225600480360360208110156101f957600080fd5b81019080803573ffffffffffffffffffffffffffffffffffffffff169060200190929190505050610a89565b60405180806020018581526020018060200184151515158152602001838103835287818151815260200191508051906020019080838360005b8381101561027957808201518184015260208101905061025e565b50505050905090810190601f1680156102a65780820380516001836020036101000a031916815260200191505b50838103825285818151815260200191508051906020019080838360005b838110156102df5780820151818401526020810190506102c4565b50505050905090810190601f16801561030c5780820380516001836020036101000a031916815260200191505b50965050505050505060405180910390f35b34801561032a57600080fd5b5061036d6004803603602081101561034157600080fd5b81019080803573ffffffffffffffffffffffffffffffffffffffff169060200190929190505050610c79565b60405180858152602001806020018060200184151515158152602001838103835286818151815260200191508051906020019080838360005b838110156103c15780820151818401526020810190506103a6565b50505050905090810190601f1680156103ee5780820380516001836020036101000a031916815260200191505b50838103825285818151815260200191508051906020019080838360005b8381101561042757808201518184015260208101905061040c565b50505050905090810190601f1680156104545780820380516001836020036101000a031916815260200191505b50965050505050505060405180910390f35b34801561047257600080fd5b5061047b610de6565b6040518082815260200191505060405180910390f35b34801561049d57600080fd5b50610561600480360360408110156104b457600080fd5b8101908080359060200190929190803590602001906401000000008111156104db57600080fd5b8201836020820111156104ed57600080fd5b8035906020019184600183028401116401000000008311171561050f57600080fd5b91908080601f016020809104026020016040519081016040528093929190818152602001838380828437600081840152601f19601f820116905080830192505050505050509192919290505050610e05565b005b6106b36004803603604081101561057957600080fd5b810190808035906020019064010000000081111561059657600080fd5b8201836020820111156105a857600080fd5b803590602001918460018302840111640100000000831117156105ca57600080fd5b91908080601f016020809104026020016040519081016040528093929190818152602001838380828437600081840152601f19601f8201169050808301925050505050505091929192908035906020019064010000000081111561062d57600080fd5b82018360208201111561063f57600080fd5b8035906020019184600183028401116401000000008311171561066157600080fd5b91908080601f016020809104026020016040519081016040528093929190818152602001838380828437600081840152601f19601f820116905080830192505050505050509192919290505050611288565b005b6000809054906101000a900473ffffffffffffffffffffffffffffffffffffffff1673ffffffffffffffffffffffffffffffffffffffff163373ffffffffffffffffffffffffffffffffffffffff1614151561079f576040517f08c379a00000000000000000000000000000000000000000000000000000000081526004018080602001828103825260268152602001807f4f6e6c7920746865206f776e65722063616e2063616c6c20746869732066756e81526020017f6374696f6e2e000000000000000000000000000000000000000000000000000081525060400191505060405180910390fd5b80600060146101000a81548160ff02191690831515021790555050565b6000809054906101000a900473ffffffffffffffffffffffffffffffffffffffff1673ffffffffffffffffffffffffffffffffffffffff163373ffffffffffffffffffffffffffffffffffffffff161415156108a6576040517f08c379a00000000000000000000000000000000000000000000000000000000081526004018080602001828103825260268152602001807f4f6e6c7920746865206f776e65722063616e2063616c6c20746869732066756e81526020017f6374696f6e2e000000000000000000000000000000000000000000000000000081525060400191505060405180910390fd5b60018060008373ffffffffffffffffffffffffffffffffffffffff1673ffffffffffffffffffffffffffffffffffffffff16815260200190815260200160002060030160006101000a81548160ff021916908315150217905550670de0b6b3a7640000600160008373ffffffffffffffffffffffffffffffffffffffff1673ffffffffffffffffffffffffffffffffffffffff1681526020019081526020016000206000016000828254019250508190555050565b6000600160003373ffffffffffffffffffffffffffffffffffffffff1673ffffffffffffffffffffffffffffffffffffffff16815260200190815260200160002090503481600001600082825401925050819055503373ffffffffffffffffffffffffffffffffffffffff16347f6465706f736974000000000000000000000000000000000000000000000000007f759821fc0dd8b7954352388d9d3f376f8a4c06d4a72def093e0526ff058363dd856040518080602001828103825283818151815260200191508051906020019080838360005b83811015610a4b578082015181840152602081019050610a30565b50505050905090810190601f168015610a785780820380516001836020036101000a031916815260200191505b509250505060405180910390a45050565b6060600060606000610a996114a6565b600160008773ffffffffffffffffffffffffffffffffffffffff1673ffffffffffffffffffffffffffffffffffffffff1681526020019081526020016000206080604051908101604052908160008201548152602001600182018054600181600116156101000203166002900480601f016020809104026020016040519081016040528092919081815260200182805460018160011615610100020316600290048015610b875780601f10610b5c57610100808354040283529160200191610b87565b820191906000526020600020905b815481529060010190602001808311610b6a57829003601f168201915b50505050508152602001600282018054600181600116156101000203166002900480601f016020809104026020016040519081016040528092919081815260200182805460018160011615610100020316600290048015610c295780601f10610bfe57610100808354040283529160200191610c29565b820191906000526020600020905b815481529060010190602001808311610c0c57829003601f168201915b505050505081526020016003820160009054906101000a900460ff161515151581525050905080602001518160000151826040015183606001518393508191509450945094509450509193509193565b6001602052806000526040600020600091509050806000015490806001018054600181600116156101000203166002900480601f016020809104026020016040519081016040528092919081815260200182805460018160011615610100020316600290048015610d2b5780601f10610d0057610100808354040283529160200191610d2b565b820191906000526020600020905b815481529060010190602001808311610d0e57829003601f168201915b505050505090806002018054600181600116156101000203166002900480601f016020809104026020016040519081016040528092919081815260200182805460018160011615610100020316600290048015610dc95780601f10610d9e57610100808354040283529160200191610dc9565b820191906000526020600020905b815481529060010190602001808311610dac57829003601f168201915b5050505050908060030160009054906101000a900460ff16905084565b60003073ffffffffffffffffffffffffffffffffffffffff1631905090565b60001515600060149054906101000a900460ff161515141515610e90576040517f08c379a00000000000000000000000000000000000000000000000000000000081526004018080602001828103825260208152602001807f57697468647261776c73206172652063757272656e746c79207061757365642e81525060200191505060405180910390fd5b60011515600160003373ffffffffffffffffffffffffffffffffffffffff1673ffffffffffffffffffffffffffffffffffffffff16815260200190815260200160002060030160009054906101000a900460ff161515141515610f5b576040517f08c379a000000000000000000000000000000000000000000000000000000000815260040180806020018281038252601e8152602001807f4164647265737320686173206e6f74206265656e2076657269666965642e000081525060200191505060405180910390fd5b60006002600160003373ffffffffffffffffffffffffffffffffffffffff1673ffffffffffffffffffffffffffffffffffffffff16815260200190815260200160002060000154811515610fab57fe5b049050808311151515611072576040517f08c379a00000000000000000000000000000000000000000000000000000000081526004018080602001828103825260448152602001807f536f7272792c20796f752063616e206f6e6c7920657874726163742068616c6681526020017f206f6620796f757220636f6e747269627574696f6e42616c616e636520696e2081526020017f5765692e0000000000000000000000000000000000000000000000000000000081525060600191505060405180910390fd5b60008251111515611111576040517f08c379a00000000000000000000000000000000000000000000000000000000081526004018080602001828103825260358152602001807f4d616b65207375726520746f206164642061206d657373616765206578706c6181526020017f696e696e6720796f75722077697468647261776c2e000000000000000000000081525060400191505060405180910390fd5b6000600160003373ffffffffffffffffffffffffffffffffffffffff1673ffffffffffffffffffffffffffffffffffffffff16815260200190815260200160002090508381600001600082825403925050819055503373ffffffffffffffffffffffffffffffffffffffff166108fc859081150290604051600060405180830381858888f193505050501580156111ac573d6000803e3d6000fd5b503373ffffffffffffffffffffffffffffffffffffffff16847f77697468647261776c00000000000000000000000000000000000000000000007f759821fc0dd8b7954352388d9d3f376f8a4c06d4a72def093e0526ff058363dd866040518080602001828103825283818151815260200191508051906020019080838360005b8381101561124857808201518184015260208101905061122d565b50505050905090810190601f1680156112755780820380516001836020036101000a031916815260200191505b509250505060405180910390a450505050565b67016345785d8a000034111515611353576040517f08c379a000000000000000000000000000000000000000000000000000000000815260040180806020018281038252605a8152602001807f496e206f7264657220746f206265636f6d652061206d616b657220796f75206e81526020017f65656420746f2073656e64206f766572206174206c6561737420302e3130204581526020017f54482077697468207468652066756e6374696f6e2063616c6c2e00000000000081525060600191505060405180910390fd5b81600160003373ffffffffffffffffffffffffffffffffffffffff1673ffffffffffffffffffffffffffffffffffffffff16815260200190815260200160002060010190805190602001906113a99291906114d1565b5080600160003373ffffffffffffffffffffffffffffffffffffffff1673ffffffffffffffffffffffffffffffffffffffff16815260200190815260200160002060020190805190602001906114009291906114d1565b503373ffffffffffffffffffffffffffffffffffffffff16347f6465706f736974000000000000000000000000000000000000000000000000007f759821fc0dd8b7954352388d9d3f376f8a4c06d4a72def093e0526ff058363dd6040518080602001828103825260168152602001807f526567697374657265642061732061206d616b6572210000000000000000000081525060200191505060405180910390a45050565b6080604051908101604052806000815260200160608152602001606081526020016000151581525090565b828054600181600116156101000203166002900490600052602060002090601f016020900481019282601f1061151257805160ff1916838001178555611540565b82800160010185558215611540579182015b8281111561153f578251825591602001919060010190611524565b5b50905061154d9190611551565b5090565b61157391905b8082111561156f576000816000905550600101611557565b5090565b9056fea165627a7a7230582009da7f7460ec23292c44cd5c9bc7a9f156f308093019952bdc4630676adfcd660029",
  "source": "pragma solidity ^0.5.1;\r\n\r\ncontract PHBacon {\r\n    \r\n    /* This contract should enable to following options:\r\n    - Get contract balance\r\n    - Deposit value into the fund\r\n    - Withdraw value from the fund. Size of value is rate limited (can only withdraw half of contributionBalance,\r\n      when verified, with a max of 0.5ETH per week.)\r\n    - We can link a PH account to our address (verification needed).\r\n    - Withdrawls and deposits emit an event.\r\n    - Withdrawls and deposit can have a message associated with the transaction.\r\n    */\r\n    \r\n    /* The goal is to keep the contract and all blockchain-based operations incredibly simple and straightforward\r\n    as such that it makes potential bugs and loopholes less common. */\r\n    \r\n    // ===== WARNING: This version is using a push system for transfers. Can be converted to a pull system where we\r\n    // ===== maintain an extractable balance for each address and enable withdraw function that solely transfers.\r\n    \r\n    // ============= VARIABLES =============\r\n    \r\n    // Setting owner of the contract\r\n    address private owner;\r\n    \r\n    // Enabling pausability -> We first want to get sufficient funds in before we enable withdrawls.\r\n    bool private withdrawPaused = true;\r\n    \r\n    // Setting Maker struct template that holds maker data\r\n    struct Maker {\r\n        uint contributionBalance;\r\n        string PHusername;\r\n        string imgurl;\r\n        bool verified;\r\n    }\r\n    \r\n    // Mapping address to a Maker\r\n    mapping (address => Maker) public addressToMaker;\r\n    \r\n    \r\n    constructor() public {\r\n        owner = msg.sender;\r\n    }\r\n    \r\n    \r\n    // ============= EVENTS =============\r\n    event Transaction(bytes32 indexed _type, uint indexed _value, address indexed _maker, string _msg);\r\n    \r\n    \r\n    // ============= MODIFIERS =============\r\n    \r\n    // Require that the msg.sender is the owner\r\n    modifier isOwner() {\r\n        require(msg.sender == owner, \"Only the owner can call this function.\");\r\n        _;\r\n    }\r\n    \r\n    // Require that withdrawls are not paused\r\n    modifier notPaused() {\r\n        require(withdrawPaused == false, \"Withdrawls are currently paused.\");\r\n        _;\r\n    }\r\n    \r\n    // Require that the msg.sender is a verified address\r\n    modifier verified() {\r\n        require(addressToMaker[msg.sender].verified == true, \"Address has not been verified.\");\r\n        _;\r\n    }\r\n    \r\n    \r\n    // ============= FUNCTIONS =============\r\n    \r\n    // Allowing anybody to query the funds value\r\n    function getFundBalance() public view returns (uint) {\r\n        return address(this).balance;\r\n    } \r\n\r\n    // Get maker information using an address\r\n    function getMaker(address _address) public view returns(string memory, uint, string memory, bool) {\r\n        Maker memory getM = addressToMaker[_address];\r\n        return(getM.PHusername,getM.contributionBalance,getM.imgurl,getM.verified);\r\n    }\r\n\r\n    // Become a maker and request verification\r\n    function becomeMaker(string memory _username, string memory _imageurl) public payable {\r\n        require(msg.value > 0.1 ether, \"In order to become a maker you need to send over at least 0.10 ETH with the function call.\");\r\n        addressToMaker[msg.sender].PHusername = _username;\r\n        addressToMaker[msg.sender].imgurl = _imageurl;\r\n        // Emit deposit event\r\n        emit Transaction(\"deposit\", msg.value, msg.sender, \"Registered as a maker!\");\r\n    }\r\n    \r\n    // Allowing anybody to deposit funds, even non-verified makers\r\n    function deposit(string memory _msg) public payable {\r\n        // Access Maker and increase contributionBalance\r\n        Maker storage depM = addressToMaker[msg.sender];\r\n        depM.contributionBalance += msg.value;\r\n        // Emit deposit event\r\n        emit Transaction(\"deposit\", msg.value, msg.sender, _msg);\r\n    }\r\n    \r\n    // Allowing the wirthdrawl of funds by verified makers, capped at 0.5ETH per week, and \r\n    // value dependent on contributionBalance with a max debt of 1 ETH per maker (assymptote)\r\n    function withdraw(uint _value, string memory _msg) public notPaused() verified() {\r\n        // Set max withdrawl\r\n        uint max = addressToMaker[msg.sender].contributionBalance / 2;\r\n        require(_value <= max, \"Sorry, you can only extract half of your contributionBalance in Wei.\");\r\n        require(bytes(_msg).length > 0, \"Make sure to add a message explaining your withdrawl.\");\r\n        // Access Maker and decrease contributionBalance\r\n        Maker storage withM = addressToMaker[msg.sender];\r\n        withM.contributionBalance -= _value;\r\n        // Transfer funds\r\n        msg.sender.transfer(_value);\r\n        // Emit withdrawl event\r\n        emit Transaction(\"withdrawl\", _value, msg.sender, _msg);\r\n    }\r\n    \r\n    // Set verified address\r\n    function verify(address _makerAddress) public isOwner() {\r\n        addressToMaker[_makerAddress].verified = true;\r\n        addressToMaker[_makerAddress].contributionBalance += 1000000000000000000;\r\n    }\r\n    \r\n    // Pause or re-open withdrawls \r\n    function pause(bool _bool) public isOwner() {\r\n        withdrawPaused = _bool;\r\n    }\r\n    \r\n}",
  "sourcePath": "C:/Users/Valentijn.vd.Hout/Desktop/PHBacon/blockchain/contracts/PHBacon.sol",
  "compiler": {
    "name": "solc",
    "version": "0.5.1+commit.c8a2cb62.Emscripten.clang"
  },
  "schemaVersion": "3.0.0",
  "updatedAt": "2019-02-11T20:31:29.655Z",
  "devdoc": {
    "methods": {}
  },
  "userdoc": {
    "methods": {}
  }
}